:0400000080312B28F8
:100008007E14803100308600003087000B1F0D28D9
:100018000E2829282100921D122813281C282000A8
:10002800921D172818281C288431F124803129288A
:100038002100911D2028212829282000911D2528EC
:10004800262829288431ED2480317E10090080314A
:100058002D28E53084008430850076308600003015
:10006800870004308431B72480315D3084008430C7
:10007800850020308600003087000C308431B7249A
:100088008031B130840084308500D0308600003063
:10009800870006308431B7248031A03084000030D6
:1000A800850030308431BD2480317E1020008031BD
:1000B8005D288431502480318B170B1722008D1254
:1000C8003D302000B500E130B4003F30890B6A288C
:1000D800B40B6A28B50B6A28003279082200C100DF
:1000E8007808C00060302000AF000030B000403019
:1000F800B1000230B2000030B30083318223803176
:1001080034302000B400F130890B8828B40B8828DB
:10011800003277082200C3007608C2006030200051
:10012800AF000030B0004230B1000230B200003001
:10013800B30083318223803134302000B400F130A1
:10014800890BA428B40BA428003220002B08220015
:10015800C50020002A082200C4003E302000AF005D
:100168000030B0004430B1000230B2000030B300BB
:1001780083318223803134302000B400F130890B80
:10018800C328B40BC3280032200029082200C70066
:10019800200028082200C6003E302000AF000030B2
:1001A800B0004630B1000230B2000030B3008331F5
:1001B8008223803134302000B400F130890BE228EA
:1001C800B40BE2280032200027082200C9002000D2
:1001D80026082200C8003E302000AF000030B000E2
:1001E8004830B1000230B2000030B30083318223BE
:1001F800803134302000B400F130890B0129B40B70
:1002080001290032200025082200CB002000240804
:100218002200CA003E302000AF000030B0004A3053
:10022800B1000230B2000030B30083318223803144
:1002380034302000B400F130890B2029B40B202978
:100248000032200023082200CD00200022082200CE
:10025800CC003E302000AF000030B0004C30B10080
:100268000230B2000030B300833182238031343051
:100278002000B400F130890B3F29B40B3F2900322C
:10028800200021082200CF00200020082200CE00F4
:100298003E302000AF000030B0004E30B1000230D8
:1002A800B2000030B3008331822380313430200023
:1002B800B400F130890B5E29B40B5E2900322100AD
:1002C80055082200D100210054082200D0003E30F9
:1002D8002000AF000030B0005030B1000230B20052
:1002E8000030B30083318223803134302000B400E1
:1002F800F130890B7D29B40B7D2900322100530888
:100308002200D300210052082200D2003E302000F3
:10031800AF000030B0005230B1000230B2000030FF
:10032800B30083318223803134302000B400F130AF
:10033800890B9C29B40B9C29003222008D16293088
:100348002000B5009630B4007F30890BA929B40B82
:10035800A929B50BA929210051082200D50021009F
:1003680050082200D4003E302000AF000030B0001A
:100378005430B1000230B2000030B3008331822320
:10038800803134302000B400F130890BC929B40B16
:10039800C92900327D302200D6008430D7002030B1
:1003A80086000130870020302000B40000301E0095
:1003B800B40BDB292200D801D9013C2A5708F500E3
:1003C8005608F4008331EB23803174082000B40010
:1003D8007508B500B435B50D3408FE3EB600FF30DB
:1003E800353DB7002200590820003706031D002AB2
:1003F8002200580820003606031D032A042A0D2A65
:1004080022005808203E86000130870040308100D5
:10041800152A22005808203E860001308700C03087
:1004280081005808013E203E8600013087000230D6
:100438002000AC000030AD00220059082000AF00B9
:10044800220058082000AE0082317122803122003B
:10045800560820002C0784002200570820002D3D54
:1004680085000008810002302200D8070030D93DFD
:100478005708F5005608F4008331EB2380317408DF
:100488002000B4007508B500B435B50D3508220054
:100498005902031D532A2000340822005802031C65
:1004A800562A572AE2293E302000AF000030B0001B
:1004B8002030B10022005708F5005608F4008331B7
:1004C800EB23803174352000B200750DB300833101
:1004D800822380316E2A80312B282000B101AD1F84
:1004E800762A772A7E2AAC09AD09AC0A0319AD0A27
:1004F8000130B100AF1F812A822A892AAE09AF09CB
:10050800AE0A0319AF0A0130B106B201B3012C08D3
:100518002D040319902A912ABE2A0130B0009B2A83
:100528000130AC35AD0D890B952A0130B007AD1FF0
:100538009E2A9F2A942A0130B235B30D890BA02A2E
:100548002D082F02031DAA2A2C082E02031CAD2AEF
:10055800AE2AB32A2C08AE022D08AF3B3214013064
:10056800AD36AC0C890BB42A0130B002031DBD2A8C
:10057800BE2A9F2A31080319C22AC32AC82AB209E7
:10058800B309B20A0319B30A3308AD003208AC0044
:1005980008008531222582312400141ED42AD52A48
:1005A800DB2A84310624823122008D16062B843101
:1005B8009C248231003A0319E22AE32AF12A843181
:1005C800C9248231003A0319EA2AEB2AF12A0530B4
:1005D8002100CD000130CC00062B8431DB24823190
:1005E800003A0319F82AF92A062B8431C9248231E2
:1005F800003A0319002B012B062B05302100CD00F2
:100608000230CC0021004D08F200F301F235F30D61
:100618002F30720784000430733D80388500013F15
:100628008A00003F0A0083312100CD000800043011
:10063800F0008431FD248331003A0319242B252B43
:10064800502B210049084A0403192B2B2C2B3D2B36
:10065800470886004808870085311C2583318100BA
:1006680001302100C7070030C83D0130C902003001
:10067800CA3B49084A040319422B432B472B8531AF
:1006880001258331532B8531162583318431F92493
:1006980083310730F000532B8531192583317008D9
:1006A800080021004508460403195B2B5C2B702BBE
:1006B8000130C5020030C63B430886004408870065
:1006C80001088431E024833101302100C307003060
:1006D800C43D0330F100802B4B080319742B752B94
:1006E8007C2BCB018531132583310130F100802B20
:1006F800843185248331F100710808008531102583
:100708008331003A031D892B8A2BAC2B0130210041
:10071800C000200030082100C20020002F0821005E
:10072800C100CB01200031082100C3000130C40002
:10073800200033082100C600200032082100C5002F
:10074800C701C801C901CA01CC018431952483318C
:10075800080022008C0150308D008E013B302100B2
:100768008C00D0308D00FF308E00103023008C00BC
:100778008D01CF308E00383024008C00F0308D0091
:10078800210095132700910192019301940195018D
:100798009601080006302100CD000330CC008531D9
:1007A8002525833121004D08F200F301F235F30DC0
:1007B8002F30720784000430733D80388500013F74
:1007C8008A00003F0A0083312100CD000800750827
:1007D8002000AE007408AD00F52B0130F40700309E
:1007E800F53D74088400750885001200031DFD2B73
:1007F800FE2BF12B20002D087402F4002E08753B07
:10080800F50008002100C0010030C200FF30C1001F
:10081800C301C401C701C801CD0185312225843136
:1008280085312525843185310525843108004134F9
:100838000434003400348234033400340034003487
:1008480000340034003400340034103405340034EB
:10085800003400340034F53404348D340434AA34BC
:100868000434553403341B340334D5340434CF34BE
:10087800043485340434A3340434803024009400D0
:100888000830950096019701093092008431E924D7
:10089800843124009516080084317424843183310E
:1008A800AD238431843141248431843169248431F5
:1008B800080000342C344034453400348F3440343C
:1008C80045340034013400340F348B1021001517DF
:1008D8000030F4000030F5008431C324843108006E
:1008E8003C3021009900980127009B0122009601C5
:1008F8000800313432343334343435343634373410
:10090800003485311F258431843106248431003038
:10091800080003142100410D8431E024843104309F
:10092800080085310D25843102302100CD000800F2
:1009380003102400941E03140030093D080085317B
:10094800092584312100C00100300800210041350B
:100958008431E0248431033008000034C03440344A
:10096800453400340134FE0012001E00FE0BB82C82
:100978000034640080010131890BBE2C00347508F5
:100988002100D7007408D60008002400160E890C30
:10099800890C013908008431A3248431F0007008DF
:1009A8000800843185248431F00070080800240090
:1009B800140E890C01390800F00070082400910019
:1009C80008000834103400340F34210091159215B2
:1009D80008008231CD22843108008331CE2384314E
:1009E80008002100C00108300800240096161616D9
:1009F800080024001408013908002400961216166D
:100A08000800240095131513080024009512951664
:100A180008002400161408002100400808002400DB
:100A28009614080024009610080024009615080063
:100A38002400110808002400161508002000911150
:080A48000800200092110800D3
:020000040001F9
:04000E00E43FCF3EBE
:00000001FF
